{
  "contractName": "Aouncoin",
  "abi": [
    {
      "inputs": [],
      "payable": false,
      "stateMutability": "nonpayable",
      "type": "constructor"
    },
    {
      "constant": true,
      "inputs": [],
      "name": "totalSupply",
      "outputs": [
        {
          "internalType": "uint256",
          "name": "",
          "type": "uint256"
        }
      ],
      "payable": false,
      "stateMutability": "view",
      "type": "function"
    }
  ],
  "bytecode": "0x6080604052348015600f57600080fd5b50620f42406000819055506084806100286000396000f3fe6080604052348015600f57600080fd5b506004361060285760003560e01c806318160ddd14602d575b600080fd5b60336049565b6040518082815260200191505060405180910390f35b6000548156fea265627a7a72315820eff2a5f70207300750a7d7fc410c463fa953671c627afeabc005d01e5a578b7464736f6c63430005100032",
  "source": "pragma solidity >=0.4.2;\n\n// Aouncoin.sol:\n// implement the ERC 20 standard, govern the behavior of the token\n\ncontract Aouncoin {\n    \n    // Constructor\n    // How many Aouncoin will ever exist\n    // Set the total number of tokens\n    // Read the total number of tokens\n    uint256 public totalSupply;\n\n    constructor() public {\n        \n        totalSupply = 1000000; // 1MM total supply (ever)\n    \n    }\n\n}\n\n",
  "sourcePath": "/Users/daniel/github/Aouncoin/contracts/Aouncoin.sol",
  "compiler": {
    "name": "solc",
    "version": "0.5.16+commit.9c3226ce.Emscripten.clang"
  },
  "schemaVersion": "3.3.4",
  "updatedAt": "2021-03-07T06:13:35.873Z",
  "networkType": "ethereum",
  "devdoc": {
    "methods": {}
  },
  "userdoc": {
    "methods": {}
  }
}